{
  "_format": "hh-sol-artifact-1",
  "contractName": "RainforestNFT",
  "sourceName": "contracts/RainforestNFT.sol",
  "abi": [
    {
      "inputs": [],
      "stateMutability": "nonpayable",
      "type": "constructor"
    },
    {
      "anonymous": false,
      "inputs": [
        {
          "indexed": true,
          "internalType": "address",
          "name": "owner",
          "type": "address"
        },
        {
          "indexed": true,
          "internalType": "address",
          "name": "approved",
          "type": "address"
        },
        {
          "indexed": true,
          "internalType": "uint256",
          "name": "tokenId",
          "type": "uint256"
        }
      ],
      "name": "Approval",
      "type": "event"
    },
    {
      "anonymous": false,
      "inputs": [
        {
          "indexed": true,
          "internalType": "address",
          "name": "owner",
          "type": "address"
        },
        {
          "indexed": true,
          "internalType": "address",
          "name": "operator",
          "type": "address"
        },
        {
          "indexed": false,
          "internalType": "bool",
          "name": "approved",
          "type": "bool"
        }
      ],
      "name": "ApprovalForAll",
      "type": "event"
    },
    {
      "anonymous": false,
      "inputs": [
        {
          "indexed": true,
          "internalType": "address",
          "name": "from",
          "type": "address"
        },
        {
          "indexed": true,
          "internalType": "address",
          "name": "to",
          "type": "address"
        },
        {
          "indexed": true,
          "internalType": "uint256",
          "name": "tokenId",
          "type": "uint256"
        }
      ],
      "name": "Transfer",
      "type": "event"
    },
    {
      "inputs": [
        {
          "internalType": "address",
          "name": "to",
          "type": "address"
        },
        {
          "internalType": "uint256",
          "name": "tokenId",
          "type": "uint256"
        }
      ],
      "name": "approve",
      "outputs": [],
      "stateMutability": "nonpayable",
      "type": "function"
    },
    {
      "inputs": [
        {
          "internalType": "address",
          "name": "owner",
          "type": "address"
        }
      ],
      "name": "balanceOf",
      "outputs": [
        {
          "internalType": "uint256",
          "name": "",
          "type": "uint256"
        }
      ],
      "stateMutability": "view",
      "type": "function"
    },
    {
      "inputs": [
        {
          "internalType": "uint256",
          "name": "tokenId",
          "type": "uint256"
        }
      ],
      "name": "getApproved",
      "outputs": [
        {
          "internalType": "address",
          "name": "",
          "type": "address"
        }
      ],
      "stateMutability": "view",
      "type": "function"
    },
    {
      "inputs": [],
      "name": "getRarity",
      "outputs": [
        {
          "internalType": "uint256",
          "name": "",
          "type": "uint256"
        }
      ],
      "stateMutability": "view",
      "type": "function"
    },
    {
      "inputs": [
        {
          "internalType": "address",
          "name": "owner",
          "type": "address"
        },
        {
          "internalType": "address",
          "name": "operator",
          "type": "address"
        }
      ],
      "name": "isApprovedForAll",
      "outputs": [
        {
          "internalType": "bool",
          "name": "",
          "type": "bool"
        }
      ],
      "stateMutability": "view",
      "type": "function"
    },
    {
      "inputs": [
        {
          "internalType": "address",
          "name": "to",
          "type": "address"
        }
      ],
      "name": "mintNFT",
      "outputs": [
        {
          "internalType": "uint256",
          "name": "",
          "type": "uint256"
        }
      ],
      "stateMutability": "nonpayable",
      "type": "function"
    },
    {
      "inputs": [],
      "name": "name",
      "outputs": [
        {
          "internalType": "string",
          "name": "",
          "type": "string"
        }
      ],
      "stateMutability": "view",
      "type": "function"
    },
    {
      "inputs": [],
      "name": "owner",
      "outputs": [
        {
          "internalType": "address",
          "name": "",
          "type": "address"
        }
      ],
      "stateMutability": "view",
      "type": "function"
    },
    {
      "inputs": [
        {
          "internalType": "uint256",
          "name": "tokenId",
          "type": "uint256"
        }
      ],
      "name": "ownerOf",
      "outputs": [
        {
          "internalType": "address",
          "name": "",
          "type": "address"
        }
      ],
      "stateMutability": "view",
      "type": "function"
    },
    {
      "inputs": [
        {
          "internalType": "address",
          "name": "from",
          "type": "address"
        },
        {
          "internalType": "address",
          "name": "to",
          "type": "address"
        },
        {
          "internalType": "uint256",
          "name": "tokenId",
          "type": "uint256"
        }
      ],
      "name": "safeTransfer",
      "outputs": [],
      "stateMutability": "nonpayable",
      "type": "function"
    },
    {
      "inputs": [
        {
          "internalType": "address",
          "name": "from",
          "type": "address"
        },
        {
          "internalType": "address",
          "name": "to",
          "type": "address"
        },
        {
          "internalType": "uint256",
          "name": "tokenId",
          "type": "uint256"
        },
        {
          "internalType": "bytes",
          "name": "data",
          "type": "bytes"
        }
      ],
      "name": "safeTransferData",
      "outputs": [],
      "stateMutability": "nonpayable",
      "type": "function"
    },
    {
      "inputs": [
        {
          "internalType": "address",
          "name": "from",
          "type": "address"
        },
        {
          "internalType": "address",
          "name": "to",
          "type": "address"
        },
        {
          "internalType": "uint256",
          "name": "tokenId",
          "type": "uint256"
        }
      ],
      "name": "safeTransferFrom",
      "outputs": [],
      "stateMutability": "nonpayable",
      "type": "function"
    },
    {
      "inputs": [
        {
          "internalType": "address",
          "name": "from",
          "type": "address"
        },
        {
          "internalType": "address",
          "name": "to",
          "type": "address"
        },
        {
          "internalType": "uint256",
          "name": "tokenId",
          "type": "uint256"
        },
        {
          "internalType": "bytes",
          "name": "_data",
          "type": "bytes"
        }
      ],
      "name": "safeTransferFrom",
      "outputs": [],
      "stateMutability": "nonpayable",
      "type": "function"
    },
    {
      "inputs": [
        {
          "internalType": "address",
          "name": "operator",
          "type": "address"
        },
        {
          "internalType": "bool",
          "name": "approved",
          "type": "bool"
        }
      ],
      "name": "setApprovalForAll",
      "outputs": [],
      "stateMutability": "nonpayable",
      "type": "function"
    },
    {
      "inputs": [
        {
          "internalType": "bytes4",
          "name": "interfaceId",
          "type": "bytes4"
        }
      ],
      "name": "supportsInterface",
      "outputs": [
        {
          "internalType": "bool",
          "name": "",
          "type": "bool"
        }
      ],
      "stateMutability": "view",
      "type": "function"
    },
    {
      "inputs": [],
      "name": "symbol",
      "outputs": [
        {
          "internalType": "string",
          "name": "",
          "type": "string"
        }
      ],
      "stateMutability": "view",
      "type": "function"
    },
    {
      "inputs": [
        {
          "internalType": "uint256",
          "name": "tokenId",
          "type": "uint256"
        }
      ],
      "name": "tokenURI",
      "outputs": [
        {
          "internalType": "string",
          "name": "",
          "type": "string"
        }
      ],
      "stateMutability": "view",
      "type": "function"
    },
    {
      "inputs": [
        {
          "internalType": "address",
          "name": "from",
          "type": "address"
        },
        {
          "internalType": "address",
          "name": "to",
          "type": "address"
        },
        {
          "internalType": "uint256",
          "name": "tokenId",
          "type": "uint256"
        }
      ],
      "name": "transferFrom",
      "outputs": [],
      "stateMutability": "nonpayable",
      "type": "function"
    }
  ],
  "bytecode": "0x60806040523480156200001157600080fd5b506040518060400160405280600a81526020017f5261696e666f72657374000000000000000000000000000000000000000000008152506040518060400160405280600481526020017f524652540000000000000000000000000000000000000000000000000000000081525081600090805190602001906200009692919062000217565b508060019080519060200190620000af92919062000217565b50505033600760006101000a81548173ffffffffffffffffffffffffffffffffffffffff021916908373ffffffffffffffffffffffffffffffffffffffff160217905550620001036200010a60201b60201c565b5062000421565b6000806065424460405160200162000124929190620002e2565b6040516020818303038152906040528051906020012060001c6200014991906200035c565b9050603281116200017757600160048111156200016b576200016a620003c3565b5b6008819055506200020e565b603c81111580156200018a575060508111155b15620001b35760026004811115620001a757620001a6620003c3565b5b6008819055506200020d565b605a8111158015620001c65750605f8111155b15620001ef5760036004811115620001e357620001e2620003c3565b5b6008819055506200020c565b600480811115620002055762000204620003c3565b5b6008819055505b5b5b60085491505090565b82805462000225906200031c565b90600052602060002090601f01602090048101928262000249576000855562000295565b82601f106200026457805160ff191683800117855562000295565b8280016001018555821562000295579182015b828111156200029457825182559160200191906001019062000277565b5b509050620002a49190620002a8565b5090565b5b80821115620002c3576000816000905550600101620002a9565b5090565b620002dc620002d68262000312565b62000352565b82525050565b6000620002f08285620002c7565b602082019150620003028284620002c7565b6020820191508190509392505050565b6000819050919050565b600060028204905060018216806200033557607f821691505b602082108114156200034c576200034b620003f2565b5b50919050565b6000819050919050565b6000620003698262000312565b9150620003768362000312565b92508262000389576200038862000394565b5b828206905092915050565b7f4e487b7100000000000000000000000000000000000000000000000000000000600052601260045260246000fd5b7f4e487b7100000000000000000000000000000000000000000000000000000000600052602160045260246000fd5b7f4e487b7100000000000000000000000000000000000000000000000000000000600052602260045260246000fd5b6129d980620004316000396000f3fe608060405234801561001057600080fd5b50600436106101165760003560e01c80637b32cdba116100a2578063b88d4fde11610071578063b88d4fde146102f3578063c87b56dd1461030f578063d1660f991461033f578063e985e9c51461035b578063fe4ac63a1461038b57610116565b80637b32cdba1461027d5780638da5cb5b1461029b57806395d89b41146102b9578063a22cb465146102d757610116565b806323b872dd116100e957806323b872dd146101b557806342842e0e146101d157806354ba0f27146101ed5780636352211e1461021d57806370a082311461024d57610116565b806301ffc9a71461011b57806306fdde031461014b578063081812fc14610169578063095ea7b314610199575b600080fd5b61013560048036038101906101309190611b10565b6103a7565b6040516101429190611f1f565b60405180910390f35b610153610489565b6040516101609190611f3a565b60405180910390f35b610183600480360381019061017e9190611b6a565b61051b565b6040516101909190611eb8565b60405180910390f35b6101b360048036038101906101ae9190611ad0565b6105a0565b005b6101cf60048036038101906101ca91906119ba565b6106b8565b005b6101eb60048036038101906101e691906119ba565b610718565b005b6102076004803603810190610202919061194d565b610738565b604051610214919061211c565b60405180910390f35b61023760048036038101906102329190611b6a565b6107cb565b6040516102449190611eb8565b60405180910390f35b6102676004803603810190610262919061194d565b61087d565b604051610274919061211c565b60405180910390f35b610285610935565b604051610292919061211c565b60405180910390f35b6102a361093f565b6040516102b09190611eb8565b60405180910390f35b6102c1610965565b6040516102ce9190611f3a565b60405180910390f35b6102f160048036038101906102ec9190611a90565b6109f7565b005b61030d60048036038101906103089190611a0d565b610a0d565b005b61032960048036038101906103249190611b6a565b610a6f565b6040516103369190611f3a565b60405180910390f35b610359600480360381019061035491906119ba565b610b16565b005b6103756004803603810190610370919061197a565b610b26565b6040516103829190611f1f565b60405180910390f35b6103a560048036038101906103a09190611a0d565b610bba565b005b60007f80ac58cd000000000000000000000000000000000000000000000000000000007bffffffffffffffffffffffffffffffffffffffffffffffffffffffff1916827bffffffffffffffffffffffffffffffffffffffffffffffffffffffff1916148061047257507f5b5e139f000000000000000000000000000000000000000000000000000000007bffffffffffffffffffffffffffffffffffffffffffffffffffffffff1916827bffffffffffffffffffffffffffffffffffffffffffffffffffffffff1916145b80610482575061048182610bcc565b5b9050919050565b60606000805461049890612341565b80601f01602080910402602001604051908101604052809291908181526020018280546104c490612341565b80156105115780601f106104e657610100808354040283529160200191610511565b820191906000526020600020905b8154815290600101906020018083116104f457829003601f168201915b5050505050905090565b600061052682610c36565b610565576040517f08c379a000000000000000000000000000000000000000000000000000000000815260040161055c9061207c565b60405180910390fd5b6004600083815260200190815260200160002060009054906101000a900473ffffffffffffffffffffffffffffffffffffffff169050919050565b60006105ab826107cb565b90508073ffffffffffffffffffffffffffffffffffffffff168373ffffffffffffffffffffffffffffffffffffffff16141561061c576040517f08c379a0000000000000000000000000000000000000000000000000000000008152600401610613906120dc565b60405180910390fd5b8073ffffffffffffffffffffffffffffffffffffffff1661063b610ca2565b73ffffffffffffffffffffffffffffffffffffffff16148061066a575061066981610664610ca2565b610b26565b5b6106a9576040517f08c379a00000000000000000000000000000000000000000000000000000000081526004016106a090611ffc565b60405180910390fd5b6106b38383610caa565b505050565b6106c96106c3610ca2565b82610d63565b610708576040517f08c379a00000000000000000000000000000000000000000000000000000000081526004016106ff906120fc565b60405180910390fd5b610713838383610e41565b505050565b61073383838360405180602001604052806000815250610a0d565b505050565b6000600760009054906101000a900473ffffffffffffffffffffffffffffffffffffffff1673ffffffffffffffffffffffffffffffffffffffff163373ffffffffffffffffffffffffffffffffffffffff161461079457600080fd5b61079e600661109d565b6107b1826107ac60066110b3565b6110c1565b6107b961128f565b506107c460066110b3565b9050919050565b6000806002600084815260200190815260200160002060009054906101000a900473ffffffffffffffffffffffffffffffffffffffff169050600073ffffffffffffffffffffffffffffffffffffffff168173ffffffffffffffffffffffffffffffffffffffff161415610874576040517f08c379a000000000000000000000000000000000000000000000000000000000815260040161086b9061203c565b60405180910390fd5b80915050919050565b60008073ffffffffffffffffffffffffffffffffffffffff168273ffffffffffffffffffffffffffffffffffffffff1614156108ee576040517f08c379a00000000000000000000000000000000000000000000000000000000081526004016108e59061201c565b60405180910390fd5b600360008373ffffffffffffffffffffffffffffffffffffffff1673ffffffffffffffffffffffffffffffffffffffff168152602001908152602001600020549050919050565b6000600854905090565b600760009054906101000a900473ffffffffffffffffffffffffffffffffffffffff1681565b60606001805461097490612341565b80601f01602080910402602001604051908101604052809291908181526020018280546109a090612341565b80156109ed5780601f106109c2576101008083540402835291602001916109ed565b820191906000526020600020905b8154815290600101906020018083116109d057829003601f168201915b5050505050905090565b610a09610a02610ca2565b8383611384565b5050565b610a1e610a18610ca2565b83610d63565b610a5d576040517f08c379a0000000000000000000000000000000000000000000000000000000008152600401610a54906120fc565b60405180910390fd5b610a69848484846114f1565b50505050565b6060610a7a82610c36565b610ab9576040517f08c379a0000000000000000000000000000000000000000000000000000000008152600401610ab0906120bc565b60405180910390fd5b6000610ac361154d565b90506000815111610ae35760405180602001604052806000815250610b0e565b80610aed84611564565b604051602001610afe929190611e68565b6040516020818303038152906040525b915050919050565b610b21838383610718565b505050565b6000600560008473ffffffffffffffffffffffffffffffffffffffff1673ffffffffffffffffffffffffffffffffffffffff16815260200190815260200160002060008373ffffffffffffffffffffffffffffffffffffffff1673ffffffffffffffffffffffffffffffffffffffff16815260200190815260200160002060009054906101000a900460ff16905092915050565b610bc684848484610a0d565b50505050565b60007f01ffc9a7000000000000000000000000000000000000000000000000000000007bffffffffffffffffffffffffffffffffffffffffffffffffffffffff1916827bffffffffffffffffffffffffffffffffffffffffffffffffffffffff1916149050919050565b60008073ffffffffffffffffffffffffffffffffffffffff166002600084815260200190815260200160002060009054906101000a900473ffffffffffffffffffffffffffffffffffffffff1673ffffffffffffffffffffffffffffffffffffffff1614159050919050565b600033905090565b816004600083815260200190815260200160002060006101000a81548173ffffffffffffffffffffffffffffffffffffffff021916908373ffffffffffffffffffffffffffffffffffffffff160217905550808273ffffffffffffffffffffffffffffffffffffffff16610d1d836107cb565b73ffffffffffffffffffffffffffffffffffffffff167f8c5be1e5ebec7d5bd14f71427d1e84f3dd0314c0f7b2291e5b200ac8c7c3b92560405160405180910390a45050565b6000610d6e82610c36565b610dad576040517f08c379a0000000000000000000000000000000000000000000000000000000008152600401610da490611fdc565b60405180910390fd5b6000610db8836107cb565b90508073ffffffffffffffffffffffffffffffffffffffff168473ffffffffffffffffffffffffffffffffffffffff161480610e2757508373ffffffffffffffffffffffffffffffffffffffff16610e0f8461051b565b73ffffffffffffffffffffffffffffffffffffffff16145b80610e385750610e378185610b26565b5b91505092915050565b8273ffffffffffffffffffffffffffffffffffffffff16610e61826107cb565b73ffffffffffffffffffffffffffffffffffffffff1614610eb7576040517f08c379a0000000000000000000000000000000000000000000000000000000008152600401610eae9061209c565b60405180910390fd5b600073ffffffffffffffffffffffffffffffffffffffff168273ffffffffffffffffffffffffffffffffffffffff161415610f27576040517f08c379a0000000000000000000000000000000000000000000000000000000008152600401610f1e90611f9c565b60405180910390fd5b610f328383836116c5565b610f3d600082610caa565b6001600360008573ffffffffffffffffffffffffffffffffffffffff1673ffffffffffffffffffffffffffffffffffffffff1681526020019081526020016000206000828254610f8d9190612257565b925050819055506001600360008473ffffffffffffffffffffffffffffffffffffffff1673ffffffffffffffffffffffffffffffffffffffff1681526020019081526020016000206000828254610fe491906121d0565b92505081905550816002600083815260200190815260200160002060006101000a81548173ffffffffffffffffffffffffffffffffffffffff021916908373ffffffffffffffffffffffffffffffffffffffff160217905550808273ffffffffffffffffffffffffffffffffffffffff168473ffffffffffffffffffffffffffffffffffffffff167fddf252ad1be2c89b69c2b068fc378daa952ba7f163c4a11628f55a4df523b3ef60405160405180910390a4505050565b6001816000016000828254019250508190555050565b600081600001549050919050565b600073ffffffffffffffffffffffffffffffffffffffff168273ffffffffffffffffffffffffffffffffffffffff161415611131576040517f08c379a00000000000000000000000000000000000000000000000000000000081526004016111289061205c565b60405180910390fd5b61113a81610c36565b1561117a576040517f08c379a000000000000000000000000000000000000000000000000000000000815260040161117190611f7c565b60405180910390fd5b611186600083836116c5565b6001600360008473ffffffffffffffffffffffffffffffffffffffff1673ffffffffffffffffffffffffffffffffffffffff16815260200190815260200160002060008282546111d691906121d0565b92505081905550816002600083815260200190815260200160002060006101000a81548173ffffffffffffffffffffffffffffffffffffffff021916908373ffffffffffffffffffffffffffffffffffffffff160217905550808273ffffffffffffffffffffffffffffffffffffffff16600073ffffffffffffffffffffffffffffffffffffffff167fddf252ad1be2c89b69c2b068fc378daa952ba7f163c4a11628f55a4df523b3ef60405160405180910390a45050565b600080606542446040516020016112a7929190611e8c565b6040516020818303038152906040528051906020012060001c6112ca91906123f7565b9050603281116112f357600160048111156112e8576112e7612486565b5b60088190555061137b565b603c8111158015611305575060508111155b15611329576002600481111561131e5761131d612486565b5b60088190555061137a565b605a811115801561133b5750605f8111155b1561135f576003600481111561135457611353612486565b5b600881905550611379565b60048081111561137257611371612486565b5b6008819055505b5b5b60085491505090565b8173ffffffffffffffffffffffffffffffffffffffff168373ffffffffffffffffffffffffffffffffffffffff1614156113f3576040517f08c379a00000000000000000000000000000000000000000000000000000000081526004016113ea90611fbc565b60405180910390fd5b80600560008573ffffffffffffffffffffffffffffffffffffffff1673ffffffffffffffffffffffffffffffffffffffff16815260200190815260200160002060008473ffffffffffffffffffffffffffffffffffffffff1673ffffffffffffffffffffffffffffffffffffffff16815260200190815260200160002060006101000a81548160ff0219169083151502179055508173ffffffffffffffffffffffffffffffffffffffff168373ffffffffffffffffffffffffffffffffffffffff167f17307eab39ab6107e8899845ad3d59bd9653f200f220920489ca2b5937696c31836040516114e49190611f1f565b60405180910390a3505050565b6114fc848484610e41565b611508848484846116ca565b611547576040517f08c379a000000000000000000000000000000000000000000000000000000000815260040161153e90611f5c565b60405180910390fd5b50505050565b606060405180602001604052806000815250905090565b606060008214156115ac576040518060400160405280600181526020017f300000000000000000000000000000000000000000000000000000000000000081525090506116c0565b600082905060005b600082146115de5780806115c7906123a4565b915050600a826115d79190612226565b91506115b4565b60008167ffffffffffffffff8111156115fa576115f9612513565b5b6040519080825280601f01601f19166020018201604052801561162c5781602001600182028036833780820191505090505b5090505b600085146116b9576001826116459190612257565b9150600a8561165491906123f7565b603061166091906121d0565b60f81b818381518110611676576116756124e4565b5b60200101907effffffffffffffffffffffffffffffffffffffffffffffffffffffffffffff1916908160001a905350600a856116b29190612226565b9450611630565b8093505050505b919050565b505050565b60006116eb8473ffffffffffffffffffffffffffffffffffffffff16611861565b15611854578373ffffffffffffffffffffffffffffffffffffffff1663150b7a02611714610ca2565b8786866040518563ffffffff1660e01b81526004016117369493929190611ed3565b602060405180830381600087803b15801561175057600080fd5b505af192505050801561178157506040513d601f19601f8201168201806040525081019061177e9190611b3d565b60015b611804573d80600081146117b1576040519150601f19603f3d011682016040523d82523d6000602084013e6117b6565b606091505b506000815114156117fc576040517f08c379a00000000000000000000000000000000000000000000000000000000081526004016117f390611f5c565b60405180910390fd5b805181602001fd5b63150b7a0260e01b7bffffffffffffffffffffffffffffffffffffffffffffffffffffffff1916817bffffffffffffffffffffffffffffffffffffffffffffffffffffffff191614915050611859565b600190505b949350505050565b600080823b905060008111915050919050565b60006118876118828461215c565b612137565b9050828152602081018484840111156118a3576118a2612547565b5b6118ae8482856122ff565b509392505050565b6000813590506118c581612947565b92915050565b6000813590506118da8161295e565b92915050565b6000813590506118ef81612975565b92915050565b60008151905061190481612975565b92915050565b600082601f83011261191f5761191e612542565b5b813561192f848260208601611874565b91505092915050565b6000813590506119478161298c565b92915050565b60006020828403121561196357611962612551565b5b6000611971848285016118b6565b91505092915050565b6000806040838503121561199157611990612551565b5b600061199f858286016118b6565b92505060206119b0858286016118b6565b9150509250929050565b6000806000606084860312156119d3576119d2612551565b5b60006119e1868287016118b6565b93505060206119f2868287016118b6565b9250506040611a0386828701611938565b9150509250925092565b60008060008060808587031215611a2757611a26612551565b5b6000611a35878288016118b6565b9450506020611a46878288016118b6565b9350506040611a5787828801611938565b925050606085013567ffffffffffffffff811115611a7857611a7761254c565b5b611a848782880161190a565b91505092959194509250565b60008060408385031215611aa757611aa6612551565b5b6000611ab5858286016118b6565b9250506020611ac6858286016118cb565b9150509250929050565b60008060408385031215611ae757611ae6612551565b5b6000611af5858286016118b6565b9250506020611b0685828601611938565b9150509250929050565b600060208284031215611b2657611b25612551565b5b6000611b34848285016118e0565b91505092915050565b600060208284031215611b5357611b52612551565b5b6000611b61848285016118f5565b91505092915050565b600060208284031215611b8057611b7f612551565b5b6000611b8e84828501611938565b91505092915050565b611ba08161228b565b82525050565b611baf8161229d565b82525050565b6000611bc08261218d565b611bca81856121a3565b9350611bda81856020860161230e565b611be381612556565b840191505092915050565b6000611bf982612198565b611c0381856121b4565b9350611c1381856020860161230e565b611c1c81612556565b840191505092915050565b6000611c3282612198565b611c3c81856121c5565b9350611c4c81856020860161230e565b80840191505092915050565b6000611c656032836121b4565b9150611c7082612567565b604082019050919050565b6000611c88601c836121b4565b9150611c93826125b6565b602082019050919050565b6000611cab6024836121b4565b9150611cb6826125df565b604082019050919050565b6000611cce6019836121b4565b9150611cd98261262e565b602082019050919050565b6000611cf1602c836121b4565b9150611cfc82612657565b604082019050919050565b6000611d146038836121b4565b9150611d1f826126a6565b604082019050919050565b6000611d37602a836121b4565b9150611d42826126f5565b604082019050919050565b6000611d5a6029836121b4565b9150611d6582612744565b604082019050919050565b6000611d7d6020836121b4565b9150611d8882612793565b602082019050919050565b6000611da0602c836121b4565b9150611dab826127bc565b604082019050919050565b6000611dc36029836121b4565b9150611dce8261280b565b604082019050919050565b6000611de6602f836121b4565b9150611df18261285a565b604082019050919050565b6000611e096021836121b4565b9150611e14826128a9565b604082019050919050565b6000611e2c6031836121b4565b9150611e37826128f8565b604082019050919050565b611e4b816122f5565b82525050565b611e62611e5d826122f5565b6123ed565b82525050565b6000611e748285611c27565b9150611e808284611c27565b91508190509392505050565b6000611e988285611e51565b602082019150611ea88284611e51565b6020820191508190509392505050565b6000602082019050611ecd6000830184611b97565b92915050565b6000608082019050611ee86000830187611b97565b611ef56020830186611b97565b611f026040830185611e42565b8181036060830152611f148184611bb5565b905095945050505050565b6000602082019050611f346000830184611ba6565b92915050565b60006020820190508181036000830152611f548184611bee565b905092915050565b60006020820190508181036000830152611f7581611c58565b9050919050565b60006020820190508181036000830152611f9581611c7b565b9050919050565b60006020820190508181036000830152611fb581611c9e565b9050919050565b60006020820190508181036000830152611fd581611cc1565b9050919050565b60006020820190508181036000830152611ff581611ce4565b9050919050565b6000602082019050818103600083015261201581611d07565b9050919050565b6000602082019050818103600083015261203581611d2a565b9050919050565b6000602082019050818103600083015261205581611d4d565b9050919050565b6000602082019050818103600083015261207581611d70565b9050919050565b6000602082019050818103600083015261209581611d93565b9050919050565b600060208201905081810360008301526120b581611db6565b9050919050565b600060208201905081810360008301526120d581611dd9565b9050919050565b600060208201905081810360008301526120f581611dfc565b9050919050565b6000602082019050818103600083015261211581611e1f565b9050919050565b60006020820190506121316000830184611e42565b92915050565b6000612141612152565b905061214d8282612373565b919050565b6000604051905090565b600067ffffffffffffffff82111561217757612176612513565b5b61218082612556565b9050602081019050919050565b600081519050919050565b600081519050919050565b600082825260208201905092915050565b600082825260208201905092915050565b600081905092915050565b60006121db826122f5565b91506121e6836122f5565b9250827fffffffffffffffffffffffffffffffffffffffffffffffffffffffffffffffff0382111561221b5761221a612428565b5b828201905092915050565b6000612231826122f5565b915061223c836122f5565b92508261224c5761224b612457565b5b828204905092915050565b6000612262826122f5565b915061226d836122f5565b9250828210156122805761227f612428565b5b828203905092915050565b6000612296826122d5565b9050919050565b60008115159050919050565b60007fffffffff0000000000000000000000000000000000000000000000000000000082169050919050565b600073ffffffffffffffffffffffffffffffffffffffff82169050919050565b6000819050919050565b82818337600083830152505050565b60005b8381101561232c578082015181840152602081019050612311565b8381111561233b576000848401525b50505050565b6000600282049050600182168061235957607f821691505b6020821081141561236d5761236c6124b5565b5b50919050565b61237c82612556565b810181811067ffffffffffffffff8211171561239b5761239a612513565b5b80604052505050565b60006123af826122f5565b91507fffffffffffffffffffffffffffffffffffffffffffffffffffffffffffffffff8214156123e2576123e1612428565b5b600182019050919050565b6000819050919050565b6000612402826122f5565b915061240d836122f5565b92508261241d5761241c612457565b5b828206905092915050565b7f4e487b7100000000000000000000000000000000000000000000000000000000600052601160045260246000fd5b7f4e487b7100000000000000000000000000000000000000000000000000000000600052601260045260246000fd5b7f4e487b7100000000000000000000000000000000000000000000000000000000600052602160045260246000fd5b7f4e487b7100000000000000000000000000000000000000000000000000000000600052602260045260246000fd5b7f4e487b7100000000000000000000000000000000000000000000000000000000600052603260045260246000fd5b7f4e487b7100000000000000000000000000000000000000000000000000000000600052604160045260246000fd5b600080fd5b600080fd5b600080fd5b600080fd5b6000601f19601f8301169050919050565b7f4552433732313a207472616e7366657220746f206e6f6e20455243373231526560008201527f63656976657220696d706c656d656e7465720000000000000000000000000000602082015250565b7f4552433732313a20746f6b656e20616c7265616479206d696e74656400000000600082015250565b7f4552433732313a207472616e7366657220746f20746865207a65726f2061646460008201527f7265737300000000000000000000000000000000000000000000000000000000602082015250565b7f4552433732313a20617070726f766520746f2063616c6c657200000000000000600082015250565b7f4552433732313a206f70657261746f7220717565727920666f72206e6f6e657860008201527f697374656e7420746f6b656e0000000000000000000000000000000000000000602082015250565b7f4552433732313a20617070726f76652063616c6c6572206973206e6f74206f7760008201527f6e6572206e6f7220617070726f76656420666f7220616c6c0000000000000000602082015250565b7f4552433732313a2062616c616e636520717565727920666f7220746865207a6560008201527f726f206164647265737300000000000000000000000000000000000000000000602082015250565b7f4552433732313a206f776e657220717565727920666f72206e6f6e657869737460008201527f656e7420746f6b656e0000000000000000000000000000000000000000000000602082015250565b7f4552433732313a206d696e7420746f20746865207a65726f2061646472657373600082015250565b7f4552433732313a20617070726f76656420717565727920666f72206e6f6e657860008201527f697374656e7420746f6b656e0000000000000000000000000000000000000000602082015250565b7f4552433732313a207472616e73666572206f6620746f6b656e2074686174206960008201527f73206e6f74206f776e0000000000000000000000000000000000000000000000602082015250565b7f4552433732314d657461646174613a2055524920717565727920666f72206e6f60008201527f6e6578697374656e7420746f6b656e0000000000000000000000000000000000602082015250565b7f4552433732313a20617070726f76616c20746f2063757272656e74206f776e6560008201527f7200000000000000000000000000000000000000000000000000000000000000602082015250565b7f4552433732313a207472616e736665722063616c6c6572206973206e6f74206f60008201527f776e6572206e6f7220617070726f766564000000000000000000000000000000602082015250565b6129508161228b565b811461295b57600080fd5b50565b6129678161229d565b811461297257600080fd5b50565b61297e816122a9565b811461298957600080fd5b50565b612995816122f5565b81146129a057600080fd5b5056fea26469706673582212205c3043e39e1878f0069374f018d1774612593001ee8a304aa0f337865dfe096964736f6c63430008060033",
  "linkReferences": {},
  "deployedLinkReferences": {}
}