{
  "_format": "hh-sol-artifact-1",
  "contractName": "ExampleExternalContract",
  "sourceName": "contracts/Staker.sol",
  "abi": [
    {
      "inputs": [],
      "name": "complete",
      "outputs": [],
      "stateMutability": "payable",
      "type": "function"
    },
    {
      "inputs": [],
      "name": "completed",
      "outputs": [
        {
          "internalType": "bool",
          "name": "",
          "type": "bool"
        }
      ],
      "stateMutability": "view",
      "type": "function"
    },
    {
      "inputs": [],
      "name": "getContractBalance",
      "outputs": [
        {
          "internalType": "uint256",
          "name": "",
          "type": "uint256"
        }
      ],
      "stateMutability": "view",
      "type": "function"
    },
    {
      "inputs": [],
      "name": "notCompleted",
      "outputs": [
        {
          "internalType": "bool",
          "name": "",
          "type": "bool"
        }
      ],
      "stateMutability": "view",
      "type": "function"
    }
  ],
  "bytecode": "0x608060405234801561001057600080fd5b506101bb806100206000396000f3fe60806040526004361061003f5760003560e01c8063522e1177146100445780636f9fb98a1461004e5780639d9a7fe914610079578063db9839ad146100a4575b600080fd5b61004c6100cf565b005b34801561005a57600080fd5b506100636100eb565b6040516100709190610154565b60405180910390f35b34801561008557600080fd5b5061008e6100f3565b60405161009b9190610139565b60405180910390f35b3480156100b057600080fd5b506100b9610104565b6040516100c69190610139565b60405180910390f35b60016000806101000a81548160ff021916908315150217905550565b600047905090565b60008054906101000a900460ff1681565b60008060009054906101000a900460ff1615905090565b6101248161016f565b82525050565b6101338161017b565b82525050565b600060208201905061014e600083018461011b565b92915050565b6000602082019050610169600083018461012a565b92915050565b60008115159050919050565b600081905091905056fea2646970667358221220f8ca2648a771eb64bcc5d6f416d3642b13dfa057254fe47a387c7f660f31f73464736f6c63430008060033",
  "linkReferences": {},
  "deployedLinkReferences": {}
}