{
  "_format": "hh-sol-artifact-1",
  "contractName": "Staker",
  "sourceName": "contracts/Staker.sol",
  "abi": [
    {
      "inputs": [
        {
          "internalType": "address",
          "name": "exampleExternalContractAddress",
          "type": "address"
        }
      ],
      "stateMutability": "nonpayable",
      "type": "constructor"
    },
    {
      "anonymous": false,
      "inputs": [
        {
          "indexed": false,
          "internalType": "address",
          "name": "from",
          "type": "address"
        },
        {
          "indexed": false,
          "internalType": "uint256",
          "name": "amount",
          "type": "uint256"
        }
      ],
      "name": "stakeEvent",
      "type": "event"
    },
    {
      "inputs": [
        {
          "internalType": "address",
          "name": "",
          "type": "address"
        }
      ],
      "name": "balances",
      "outputs": [
        {
          "internalType": "uint256",
          "name": "",
          "type": "uint256"
        }
      ],
      "stateMutability": "view",
      "type": "function"
    },
    {
      "inputs": [],
      "name": "deadline",
      "outputs": [
        {
          "internalType": "uint256",
          "name": "",
          "type": "uint256"
        }
      ],
      "stateMutability": "view",
      "type": "function"
    },
    {
      "inputs": [],
      "name": "exampleExternalContract",
      "outputs": [
        {
          "internalType": "contract ExampleExternalContract",
          "name": "",
          "type": "address"
        }
      ],
      "stateMutability": "view",
      "type": "function"
    },
    {
      "inputs": [],
      "name": "execute",
      "outputs": [],
      "stateMutability": "nonpayable",
      "type": "function"
    },
    {
      "inputs": [],
      "name": "getContractBalance",
      "outputs": [
        {
          "internalType": "uint256",
          "name": "",
          "type": "uint256"
        }
      ],
      "stateMutability": "view",
      "type": "function"
    },
    {
      "inputs": [],
      "name": "openForWithdraw",
      "outputs": [
        {
          "internalType": "bool",
          "name": "",
          "type": "bool"
        }
      ],
      "stateMutability": "view",
      "type": "function"
    },
    {
      "inputs": [],
      "name": "stake",
      "outputs": [],
      "stateMutability": "payable",
      "type": "function"
    },
    {
      "inputs": [],
      "name": "threshold",
      "outputs": [
        {
          "internalType": "uint256",
          "name": "",
          "type": "uint256"
        }
      ],
      "stateMutability": "view",
      "type": "function"
    },
    {
      "inputs": [],
      "name": "timeLeft",
      "outputs": [
        {
          "internalType": "uint256",
          "name": "",
          "type": "uint256"
        }
      ],
      "stateMutability": "view",
      "type": "function"
    },
    {
      "inputs": [],
      "name": "withdraw",
      "outputs": [],
      "stateMutability": "nonpayable",
      "type": "function"
    },
    {
      "stateMutability": "payable",
      "type": "receive"
    }
  ],
  "bytecode": "0x60806040523480156200001157600080fd5b5060405162001311380380620013118339818101604052810190620000379190620000aa565b806000806101000a81548173ffffffffffffffffffffffffffffffffffffffff021916908373ffffffffffffffffffffffffffffffffffffffff160217905550601e42620000869190620000dc565b60028190555050620001c5565b600081519050620000a481620001ab565b92915050565b600060208284031215620000c357620000c2620001a6565b5b6000620000d38482850162000093565b91505092915050565b6000620000e9826200016d565b9150620000f6836200016d565b9250827fffffffffffffffffffffffffffffffffffffffffffffffffffffffffffffffff038211156200012e576200012d62000177565b5b828201905092915050565b600062000146826200014d565b9050919050565b600073ffffffffffffffffffffffffffffffffffffffff82169050919050565b6000819050919050565b7f4e487b7100000000000000000000000000000000000000000000000000000000600052601160045260246000fd5b600080fd5b620001b68162000139565b8114620001c257600080fd5b50565b61113c80620001d56000396000f3fe6080604052600436106100955760003560e01c806342cde4e81161005957806342cde4e8146101b557806361461954146101e05780636f9fb98a146101f75780639876a643146102225780639f75f2271461024d576100fc565b80631300a6d11461010157806327e235e31461012c57806329dcb0cf146101695780633a4b66f1146101945780633ccfd60b1461019e576100fc565b366100fc573073ffffffffffffffffffffffffffffffffffffffff16633a4b66f16040518163ffffffff1660e01b8152600401600060405180830381600087803b1580156100e257600080fd5b505af11580156100f6573d6000803e3d6000fd5b50505050005b600080fd5b34801561010d57600080fd5b50610116610278565b6040516101239190610d7c565b60405180910390f35b34801561013857600080fd5b50610153600480360381019061014e9190610a6f565b6102a0565b6040516101609190610d7c565b60405180910390f35b34801561017557600080fd5b5061017e6102b8565b60405161018b9190610d7c565b60405180910390f35b61019c6102be565b005b3480156101aa57600080fd5b506101b36104f2565b005b3480156101c157600080fd5b506101ca610788565b6040516101d79190610d7c565b60405180910390f35b3480156101ec57600080fd5b506101f5610794565b005b34801561020357600080fd5b5061020c610a06565b6040516102199190610d7c565b60405180910390f35b34801561022e57600080fd5b50610237610a0e565b6040516102449190610c46565b60405180910390f35b34801561025957600080fd5b50610262610a21565b60405161026f9190610c61565b60405180910390f35b6000600254421061028c576000905061029d565b4260025461029a9190610dfe565b90505b90565b60016020528060005260406000206000915090505481565b60025481565b60008054906101000a900473ffffffffffffffffffffffffffffffffffffffff1673ffffffffffffffffffffffffffffffffffffffff1663db9839ad6040518163ffffffff1660e01b815260040160206040518083038186803b15801561032457600080fd5b505afa158015610338573d6000803e3d6000fd5b505050506040513d601f19601f8201168201806040525081019061035c9190610a9c565b61039b576040517f08c379a000000000000000000000000000000000000000000000000000000000815260040161039290610d5c565b60405180910390fd5b600034116103de576040517f08c379a00000000000000000000000000000000000000000000000000000000081526004016103d590610d1c565b60405180910390fd5b6002544210610422576040517f08c379a000000000000000000000000000000000000000000000000000000000815260040161041990610cbc565b60405180910390fd5b34600160003373ffffffffffffffffffffffffffffffffffffffff1673ffffffffffffffffffffffffffffffffffffffff16815260200190815260200160002060008282546104719190610da8565b925050819055507f63bf34a397094bd6a1d67eb69557c0e978c3ee4ddc0e93be1e2a50070cbe3bd933600160003373ffffffffffffffffffffffffffffffffffffffff1673ffffffffffffffffffffffffffffffffffffffff168152602001908152602001600020546040516104e8929190610c1d565b60405180910390a1565b6000600160003373ffffffffffffffffffffffffffffffffffffffff1673ffffffffffffffffffffffffffffffffffffffff1681526020019081526020016000205411610574576040517f08c379a000000000000000000000000000000000000000000000000000000000815260040161056b90610d3c565b60405180910390fd5b60008054906101000a900473ffffffffffffffffffffffffffffffffffffffff1673ffffffffffffffffffffffffffffffffffffffff1663db9839ad6040518163ffffffff1660e01b815260040160206040518083038186803b1580156105da57600080fd5b505afa1580156105ee573d6000803e3d6000fd5b505050506040513d601f19601f820116820180604052508101906106129190610a9c565b610651576040517f08c379a000000000000000000000000000000000000000000000000000000000815260040161064890610d5c565b60405180910390fd5b670de0b6b3a7640000471061069b576040517f08c379a000000000000000000000000000000000000000000000000000000000815260040161069290610c7c565b60405180910390fd5b6001600360006101000a81548160ff021916908315150217905550670de0b6b3a76400004710610700576040517f08c379a00000000000000000000000000000000000000000000000000000000081526004016106f790610cfc565b60405180910390fd5b3373ffffffffffffffffffffffffffffffffffffffff166108fc600160003373ffffffffffffffffffffffffffffffffffffffff1673ffffffffffffffffffffffffffffffffffffffff168152602001908152602001600020549081150290604051600060405180830381858888f19350505050158015610785573d6000803e3d6000fd5b50565b670de0b6b3a764000081565b6000600160003373ffffffffffffffffffffffffffffffffffffffff1673ffffffffffffffffffffffffffffffffffffffff1681526020019081526020016000205411610816576040517f08c379a000000000000000000000000000000000000000000000000000000000815260040161080d90610d3c565b60405180910390fd5b60008054906101000a900473ffffffffffffffffffffffffffffffffffffffff1673ffffffffffffffffffffffffffffffffffffffff1663db9839ad6040518163ffffffff1660e01b815260040160206040518083038186803b15801561087c57600080fd5b505afa158015610890573d6000803e3d6000fd5b505050506040513d601f19601f820116820180604052508101906108b49190610a9c565b6108f3576040517f08c379a00000000000000000000000000000000000000000000000000000000081526004016108ea90610d5c565b60405180910390fd5b600254421015610938576040517f08c379a000000000000000000000000000000000000000000000000000000000815260040161092f90610cdc565b60405180910390fd5b670de0b6b3a7640000471015610983576040517f08c379a000000000000000000000000000000000000000000000000000000000815260040161097a90610c9c565b60405180910390fd5b60008054906101000a900473ffffffffffffffffffffffffffffffffffffffff1673ffffffffffffffffffffffffffffffffffffffff1663522e1177476040518263ffffffff1660e01b81526004016000604051808303818588803b1580156109eb57600080fd5b505af11580156109ff573d6000803e3d6000fd5b5050505050565b600047905090565b600360009054906101000a900460ff1681565b60008054906101000a900473ffffffffffffffffffffffffffffffffffffffff1681565b600081359050610a54816110d8565b92915050565b600081519050610a69816110ef565b92915050565b600060208284031215610a8557610a84610ecd565b5b6000610a9384828501610a45565b91505092915050565b600060208284031215610ab257610ab1610ecd565b5b6000610ac084828501610a5a565b91505092915050565b610ad281610e32565b82525050565b610ae181610e44565b82525050565b610af081610e7a565b82525050565b6000610b03603183610d97565b9150610b0e82610ed2565b604082019050919050565b6000610b26602f83610d97565b9150610b3182610f21565b604082019050919050565b6000610b49602083610d97565b9150610b5482610f70565b602082019050919050565b6000610b6c601f83610d97565b9150610b7782610f99565b602082019050919050565b6000610b8f603283610d97565b9150610b9a82610fc2565b604082019050919050565b6000610bb2602583610d97565b9150610bbd82611011565b604082019050919050565b6000610bd5601783610d97565b9150610be082611060565b602082019050919050565b6000610bf8602983610d97565b9150610c0382611089565b604082019050919050565b610c1781610e70565b82525050565b6000604082019050610c326000830185610ac9565b610c3f6020830184610c0e565b9392505050565b6000602082019050610c5b6000830184610ad8565b92915050565b6000602082019050610c766000830184610ae7565b92915050565b60006020820190508181036000830152610c9581610af6565b9050919050565b60006020820190508181036000830152610cb581610b19565b9050919050565b60006020820190508181036000830152610cd581610b3c565b9050919050565b60006020820190508181036000830152610cf581610b5f565b9050919050565b60006020820190508181036000830152610d1581610b82565b9050919050565b60006020820190508181036000830152610d3581610ba5565b9050919050565b60006020820190508181036000830152610d5581610bc8565b9050919050565b60006020820190508181036000830152610d7581610beb565b9050919050565b6000602082019050610d916000830184610c0e565b92915050565b600082825260208201905092915050565b6000610db382610e70565b9150610dbe83610e70565b9250827fffffffffffffffffffffffffffffffffffffffffffffffffffffffffffffffff03821115610df357610df2610e9e565b5b828201905092915050565b6000610e0982610e70565b9150610e1483610e70565b925082821015610e2757610e26610e9e565b5b828203905092915050565b6000610e3d82610e50565b9050919050565b60008115159050919050565b600073ffffffffffffffffffffffffffffffffffffffff82169050919050565b6000819050919050565b6000610e8582610e8c565b9050919050565b6000610e9782610e50565b9050919050565b7f4e487b7100000000000000000000000000000000000000000000000000000000600052601160045260246000fd5b600080fd5b7f63616e206f6e6c792062652063616c6c65642069662062616c616e6365206c6560008201527f7373207468616e207468726573686f6c64000000000000000000000000000000602082015250565b7f636f6e74726163742062616c616e6365206d757374206265206772656174657260008201527f207468616e207468726573686f6c640000000000000000000000000000000000602082015250565b7f63616e206f6e6c792065786563757465206265666f726520646561646c696e65600082015250565b7f63616e206f6e6c79206578656375746520616674657220646561646c696e6500600082015250565b7f63616e206f6e6c7920626563616c6c6564207768656e2062616c616e6365206c60008201527f657373207468616e207468726573686f6c640000000000000000000000000000602082015250565b7f7374616b6520616d6f756e742073686f756c642062652067726561746572207460008201527f68616e2030000000000000000000000000000000000000000000000000000000602082015250565b7f6d616b65207375726520796f75206465706f7369746564000000000000000000600082015250565b7f616c726561647920636f6d706c6574656421206578656375746520616c72656160008201527f64792063616c6c65640000000000000000000000000000000000000000000000602082015250565b6110e181610e32565b81146110ec57600080fd5b50565b6110f881610e44565b811461110357600080fd5b5056fea26469706673582212209a053e2ef8b0f306ade8c73917d8ece8bb7fc8f65806777cf85e082b5e8f378964736f6c63430008060033",
  "linkReferences": {},
  "deployedLinkReferences": {}
}